:020000021000EC
:1090000000600020759301005D9301005F930100F3
:10901000619301006393010065930100000000006B
:109020000000000000000000000000006793010045
:1090300069930100000000006B9301006D93010033
:109040009DB401006F9301006DB601006F930100A4
:109050006F9301000000000021B501006F93010033
:109060006F9301006F9301006F9301006F930100F4
:109070006F9301006F9301006F9301006F930100E4
:109080006F930100A1A601006F9301006F9301008F
:109090006F9301006F93010079E501006F93010068
:1090A0006F9301006F9301000000000000000000BA
:1090B0006F9301006F9301000000000000000000AA
:1090C00000000000000000000000000000000000A0
:1090D0000000000000000000000000000000000090
:1090E0000000000000000000000000000000000080
:1090F0000000000000000000000000000000000070
:10910000000000000000000000000000000000005F
:10911000000000000000000000000000000000004F
:10912000000000000000000000000000000000003F
:10913000000000000000000000000000000000002F
:10914000000000000000000000000000000000001F
:10915000000000000000000000000000000000000F
:1091600000000000000000000000000000000000FF
:1091700000000000000000000000000000000000EF
:1091800000000000000000000000000000000000DF
:1091900000000000000000000000000000000000CF
:1091A00000000000000000000000000000000000BF
:1091B00000000000000000000000000000000000AF
:1091C000000000000000000000000000000000009F
:1091D000000000000000000000000000000000008F
:1091E000000000000000000000000000000000007F
:1091F000000000000000000000000000000000006F
:10920000354936480A1A02D0072291438D4634491F
:1092100034480A1A06D00722914381F309880222B2
:1092200082F3148830483149314A00F044F831481B
:109230003149324A00F03FF831483249324A00F0B1
:109240003AF832483249334A00F035F83248334967
:10925000334A00F030F833483349344A00F02BF8F1
:1092600033483449344A00F026F83448344900225F
:1092700000F02CF833483449002200F027F8334836
:109280003349091A082902DB002202604160314A91
:1092900090471F481F49884205D00268043003B434
:1092A000904703BCF7E700208646EC4600200021EB
:1092B000294A9047FEE7884207D0521A05D0037822
:1092C00001300B700131013AF9D17047884202D068
:1092D00002700130FAE7704700600020005800205B
:1092E000006000200060002000080200D82200205A
:1092F000AC230020BC930100BC93010038F60100B0
:1093000000080200D8220020D822002070F70100B7
:1093100070F7010070F7010070F7010070F70100AD
:1093200070F7010070F7010070F7010000080200FB
:10933000D4080200AC230020AC230020AC23002082
:109340002C3500202C3500202C3500202C35002019
:109350002C3D00208B93010089CC0100FEE7FEE745
:10936000FEE7FEE7FEE7FEE7FEE7FEE7FEE7FEE7D5
:1093700000F002B8FFF7FCBF0B484FF0070188432D
:1093800085460A488047FFF73BBF094809490A4A12
:10939000884207D0521A05D0037801300B70013192
:1093A000013AF9D1704700000060002079B0010057
:0C93B00070F70100D8220020D822002015
:1093BC007047000007B5044B0093044A402300F0AB
:1093CC0032F803B05DF804FBDD930100AD230020FF
:1093DC002DE9F84388461446B2B10F4B0F4E0325C6
:1093EC00002743F00109224608EB0701002003F097
:1093FC00C1FD0744241A48B933782BB14FF47A4095
:10940C00C847013D02D13570BDE8F88301233370A4
:10941C00002CE8D1F8E700BF70F70100AC23002066
:10942C00704703F0D7BDF0B595B01D4616460846FB
:10943C000C4601F0DDFC1A9B0D93CDE90865002567
:10944C002B46082205A920460A958DF82C500C9520
:10945C0001F0EAFC079B0293069B03939DF81430E2
:10946C008DF8115003F00302012A1DD1BDF8142010
:10947C00059DC3F3C203C2F383168DF81030B200FE
:10948C0008230EA9204601F0CFFCC5F3952508ABA7
:10949C000093324602AB0EA9284600F02BFB204667
:1094AC0001F0AAFC15B0F0BD022AF8D1BDF8165097
:1094BC00C3F3C203C5F389158DF810300827082DA6
:1094CC002E4628BF08263B4632460EA9204601F000
:1094DC00ABFCAD1B08AB02AA31460EA8374400F01A
:1094EC006DFB002DEBD1DAE708B5FFF79AFF0448C6
:1094FC00042100F06FFA034B01225A7108BD00BF22
:10950C0060F70100D82200200378024613F0040013
:10951C0006D003F00300012803D0022809D0012053
:10952C0070470B6812880233C2F3831213440B602A
:10953C0070470B685288023303EB92130B60EEE713
:10954C002DE9F04FDFF81CA187B00F46002304462D
:10955C00861C0DF1070015468DF8073000F02EFF24
:10956C00DAF804203A60DAF8083003F580739B1AB5
:10957C000AF21C470AF583690AF21448B3421AD35B
:10958C000020002D69D004F00F039B0143F005036C
:10959C0063F30F00DAF80430DAB2033233444AF8DA
:1095AC0022009DF80700CAF8043000F02BFF0120C0
:1095BC0007B0BDE8F08F0121384601F048F9484664
:1095CC0001F05DF9404601F05AF9DAF80800029012
:1095DC00C0B203300AEB800002A9FFF795FF029B93
:1095EC0030BBDAB20AEB8202D16803919A1C0133C8
:1095FC00DBB20AEB83030292D3F80CB001F0030345
:10960C00012B22D0022B15D08346404601F03AF9AB
:10961C0010B1029BCAF808305946384601F017F9C8
:10962C00DAF80830DAF8042003F580739B1AA5E702
:10963C00D8B2CEE7BDF80E30C3F3891303334FEA2B
:10964C001B4B02EB93030293DFE7BDF80C30C3F323
:10965C0083134FEA1B4B1344F5E7A40544F00600B3
:10966C0098E700BFC0240020064B074810B5002225
:10967C001A7001F076FB044610B9044801F078FC2E
:10968C00204610BDC0240020ACF60100ACF7010050
:10969C0030B50A4C71B10A4A0A49121BD208002390
:1096AC009A4201D1002030BD31F82350854202D0BE
:1096BC000133F5E7034654F83300F4E7C0F6010034
:1096CC0060F70100D8220020094B013903EBC000E0
:1096DC00032909D8DFE801F00A02040604207047C8
:1096EC00007970474079704700207047022070471E
:1096FC00C0F6010070470000034BD3E90130C31AD8
:10970C0058425841704700BFC02400202DE9F04159
:10971C0086B0FFF7F1FF0546002840F0ED80774C4E
:10972C00C4F81804BFF34F8FA3680293DBB2033362
:10973C0004EB830002A9FFF7E7FE029B18B1D4F8F3
:10974C001824002A5AD0DAB2991C013304EB820295
:10975C00DBB204EB8303D268DB68049302F00303EF
:10976C00022B0392029154D1BDF80E306448C3F31E
:10977C008917502F3E4628BF502606F1080166F384
:10978C008F13C1F30901ADF80E3001F002FB054651
:10979C00002800F09C8001F02BFB0023082203A979
:1097AC00284601F037FB0299CB43DBB20133C9B237
:1097BC000331B6EB830F4FEA830204EB810125D909
:1097CC005FFA82F80823A6EB0806284601F022FB74
:1097DC00F6B208F108034B4903F0FC033246284665
:1097EC0001F018FB029B033703EB97070297D4F8A1
:1097FC001834002B43D1D4F8106453E062689A42B9
:10980C0094D8A260284606B0BDE8F0810823324601
:10981C00E5E7012B5BD1BDF80C303948C3F383115C
:10982C00062928BF062161F38913023101F00F01CB
:10983C008900ADF80C3001F0ACFA0546002846D092
:10984C0001F0D6FA0023082203A9284601F0E2FA17
:10985C000026BDF80C20C2F38312B300964203F12C
:10986C000803C4D202994A1CC9B20331029204EB18
:10987C0081010422284601F0CDFA0136E9E7284699
:10988C0001F0BAFAFFF738FF80F00105EDB2B9E745
:10989C00F3685B7923B1336829461B6830469847D7
:1098AC00F3681E68002EF3D1284601F0A5FA0DF1DD
:1098BC0007008DF8076000F081FDD4F818340BB95F
:1098CC00029BA3609DF8070000F09CFDDAE7D4F83A
:1098DC00104454B90C4B0D480D49C01AC008000473
:1098EC0040F0020000F05EF8CCE7236820469B684D
:1098FC009847E3681C68ECE7002583E7C024002048
:10990C00ACF60100CC240020C0F60100E8F6010002
:10991C0094F701002DE9F34704460E46924601A93F
:10992C00012218469946FFF70BFE1C4F10B3019D00
:10993C004FF00008AA1CC84508EB020125D11848B5
:10994C00002100F055FF80F31000000440EA1440A1
:10995C00E4006B1C04F03804DBB2EDB244F00104FB
:10996C0007EB8303033544EA881444EA8624D86061
:10997C0047F825403B781BB1FFF7C8FE0028FBD108
:10998C00FFF7B8FE02B0BDE8F087C9B207EB810162
:10999C005AF82830CB6008F10108CCE7C02400202D
:1099AC00DC28002000231A46FFF7B4BF07B50123BB
:1099BC00019201AAFFF7AEFF03B05DF804FB07B5F7
:1099CC00CDE9002302236A46FFF7A4FF03B05DF83C
:1099DC0004FB000030B50F4CD4F8102403460020D3
:1099EC00114631B9D96808714AB9C4F810340A6003
:1099FC0030BDC9680D79854206D00968F1E7D26897
:109A0C0014680C601360F3E701300A28E8D14FF0BA
:109A1C00FF30EDE7C024002038B5084B0125D3F802
:109A2C0010441D7004B938BDE3685D71236820468D
:109A3C005B689847E3681C68F4E700BFC02400200B
:109A4C00C38873B504460D4633B1144A00921449C9
:109A5C00144A284600F079FF217A05291CD0637A34
:109A6C004BB1A088FFF730FE0F4B104953F8202064
:109A7C00284600F06AFF227A0D4BA08853F822602A
:109A8C000021FFF705FE0B4903463246284602B07B
:109A9C00BDE8704000F059BF02B070BDD8F70100AE
:109AAC00C0F70100B8F7010044F80100DDF7010030
:109ABC0068F80100E0F7010010B5037A052B0C469D
:109ACC000FD0437A23B1084A0849204600F03DFFE5
:109ADC000749204600F039FF2046BDE8104000F051
:109AEC0029BF002AF8D0F3E7D8F70100DDF7010011
:109AFC0003FF01002DE9F04385B01F460C9D0023A8
:109B0C0095F80C902B7306460C4690462946384621
:109B1C00FFF796FFB8F1060F09D8DFE808F004123A
:109B2C00181F283340003146284600F00EFF002253
:109B3C0029463846FFF7C0FF85F80C9005B0BDE804
:109B4C00F08322683146284600F0FFFEEFE7D4E9A7
:109B5C0000233146284600F0F8FEE8E7A36800939E
:109B6C003146D4E90023284600F0EFFEDFE7E36836
:109B7C000193A36800933146D4E90023284600F0F2
:109B8C00E4FED4E723690293E3680193A36800938E
:109B9C003146D4E90023284600F0D7FEC7E76369B5
:109BAC00039323690293E3680193A36800933146FE
:109BBC00D4E90023284600F0C8FEB8E708292DE9AF
:109BCC00F74F80460E4617461C463DD800251B7B9A
:109BDC002573214610460193FFF732FFDFF888A06A
:109BEC00DFF888B0AE4232D918F805205946204625
:109BFC0000F0ABFE0135082DF4D11D49DFF874A03F
:109C0C00DFF874B0204600F0A0FE4FF000094E457E
:109C1C0024D918F809507E2D1ED8284605F00CF9C9
:109C2C00002814BF2A462E225946204600F08DFEED
:109C3C0009F10109B9F1080FE9D101222146384691
:109C4C00FFF73AFF019B237303B0BDE8F08F514639
:109C5C00204600F07AFECDE72E22E5E7514620465D
:109C6C0000F073FEE4E700BFF0F70100EAF7010033
:109C7C00F4F70100F2F70100D8FF01001FB5002135
:109C8C00039001AA44F20100CDE9011100F004F89F
:109C9C0005B05DF804FB000038B572B6FFF7BCFEEA
:109CAC00FFF734FD0028FBD1104B114C114D12491C
:109CBC00E41AE408240444F00100FFF773FED5F81D
:109CCC00F030DB0700D500BE0C4944F00200FFF772
:109CDC0069FEBFF34F8FEA68094B02F4E06213434D
:109CEC00EB60BFF34F8F00BFFDE700BFC0F6010074
:109CFC00E8F6010000ED00E087F8010093F80100A0
:109D0C000400FA0510B5034649B152B1541E14EAC9
:109D1C00020006D1986019609C80D86010BD0E209E
:109D2C00FCE70920FAE710B58468C2688388121B27
:109D3C00934208D3C26813400268D154C3680133FC
:109D4C00C360002010BD0420FCE78268C3689A42FF
:109D5C000AD08268838813400268D35C0B708368D6
:109D6C0001338360002070470520704710B5D0E99F
:109D7C000243D1E90202A04272EB03032CBF012083
:109D8C00002010BD08B50A4800F06DFC094AD2E964
:109D9C000031C018084BD3E9002341F10001904277
:109DAC0071EB030303D210F1807041F1000108BD87
:109DBC00E022002080290020F829002037B5054634
:109DCC000C460A4801A900F082FC60B105704460A1
:109DDC0001A9064800F0A5FC18B1054800F048FCA4
:109DEC00002003B030BD0420FBE700BFE4290020B5
:109DFC00E0220020294B73B51E7804461EB90026BC
:109E0C00304602B070BD0028F9D0FFF7BBFFD4E993
:109E1C0002239042994139D300230DF107008DF8AC
:109E2C00073000F0CBFA23692BB94FF0FF324FF01B
:109E3C00FF33C4E902239DF8070000F0E3FAD4E9EC
:109E4C000530984700250DF107008DF8075000F0FC
:109E5C00B5FA2369C3B1D4E90212B2F1FF3F08BFCE
:109E6C00B1F1FF3F05D05B1842F10002C4E90232A8
:109E7C0035469DF8070000F0C5FA002DBFD0084804
:109E8C00214601F094F8BBE71D46F2E7B3F1FF3F22
:109E9C0008BFB2F1FF3FB2D0F1E700BF8829002024
:109EAC00B0F8010013B5114B114918680190082343
:109EBC001048582200F0F8FB044698B90E4A0F4897
:109ECC0001A900F0C1FA044660B90C48012100F068
:109EDC00ADFB01230A4A0948194600F00FFB094B58
:109EEC0001221A70204602B010BD00BFAAF8010072
:109EFC008C290020E4290020F19F0100E0220020A1
:109F0C00FFFF7F008829002030B56AB103684FF04D
:109F1C00FF344FF0FF355A614A1E5142C3E90245E6
:109F2C0051411961002030BD0720FCE7F7B504460C
:109F3C0000250DF1070017460E468DF8075000F06E
:109F4C003DFAD4E90223B3F1FF3F08BFB2F1FF3F62
:109F5C0007D1FFF717FF301841F10001C4E90201E6
:109F6C0001259DF8070000F04DFA55B12369A76152
:109F7C0003B126612146002003B0BDE8F040FFF795
:109F8C001DBF284603B0F0BD37B5054600240DF1C2
:109F9C0007008DF8074000F011FAD5E90223B3F160
:109FAC00FF3F08BFB2F1FF3F06D04FF0FF324FF03A
:109FBC00FF33C5E9022301249DF8070000F022FAC3
:109FCC0034B12946012003B0BDE83040FFF7F6BE9E
:109FDC00204603B030BD0000014800F044BB00BF78
:109FEC00E02200202DE9F743064600F027FB40B1A4
:109FFC00634AD2E9003113F1807341F10001C2E9E7
:10A00C0000310021304600F028FB38B15D4C23684C
:10A01C0023B12068FFF7EEFE0023236001213046B8
:10A02C0000F01BFB20B1FFF7ADFE574BC3E900015D
:10A03C005648544F01A900F084FB4FF0FF344FF009
:10A04C00FF35A0B9DFF848814E4D404600F0C5FF02
:10A05C00002800F08680D0E90223B3F1FF3F08BF4F
:10A06C00B2F1FF3F33D1404600F0B1FFEDE703788A
:10A07C00012B21D0022B09D1DFF81481404600F0CE
:10A08C00A6FF002877D0C0E90245F7E75BB9416825
:10A09C00D1E90223B3F1FF3F08BFB2F1FF3F02D079
:10A0AC003B4800F084FF01A9384800F075FB01A97A
:10A0BC00364800F046FBC4E741683B68994202D140
:10A0CC0000233B60EFE7324800F08AFFEBE729689A
:10A0DC0091B12968D1E9020182428B412FD22B68C0
:10A0EC00D3E90223B3F1FF3F08BFB2F1FF3F03D026
:10A0FC002968404600F05BFF404600F068FFD0E95D
:10A10C0002490746FFF73EFE201A69EB01090128B8
:10A11C0079F1000318DBB0F5350F13D3FFF75CFFB3
:10A12C001C4A02441C484FF49603002100F006FA26
:10A13C0090B92B6813B9304600F0D8F92F6003B0F2
:10A14C00BDE8F0832246EDE71348002100F07BFACE
:10A15C003846FFF74FFE01E00D28F9D000232B60A5
:10A16C0073E7084B1B68002BE9D1304603B0BDE800
:10A17C00F04300F0BFB9094B01221A7093E700BFFE
:10A18C0080290020002A0020F8290020E429002042
:10A19C00B0F80100FFFFB400E02200208829002065
:10A1AC000648074A03780749D35C012213B10430EF
:10A1BC0001F0B6BE0C3001F079BC00BFE8220020E3
:10A1CC00742A00202C2A00200648074A03780749E5
:10A1DC00D35C012213B1043001F054BE0C3001F0F9
:10A1EC0015BC00BFE8220020742A00202D2A002074
:10A1FC0037B50578012D0DD0022D30D075B91F491A
:10A20C001F48FFF7A2FD002834D103B0BDE8304051
:10A21C00FFF7DABF037A1BB9FFF7C2FF03B030BDFB
:10A22C004368184C19782046FFF77DFD80B18DF8F6
:10A23C0000500190144B68461B689847A168E3686E
:10A24C00A2885B1A9A42E7D2104B01221A70E5E7FA
:10A25C00A268E3689A42F1D08DF80000EAE7C3687F
:10A26C008DF800500193FFF79BFF074B68461B6866
:10A27C009847D3E703238DF80030F6E72D2A00200A
:10A28C001C2A0020082A0020042A0020182A00205A
:10A29C00F0B51F46234B89B004461A600D460029C1
:10A2AC003DD08A8820480968FFF72CFD002834D15E
:10A2BC00AA89A9681D48FFF725FD00282DD11C4E41
:10A2CC000FCE6D460FC596E80F0085E80F00636949
:10A2DC000693237C174A18488DF81C70003B18BF56
:10A2EC0001238DF81430637C002B14BF0E23002344
:10A2FC008DF81530E3680293A368039323680193E8
:10A30C0069466368009301F04BF830B90B4B187039
:10A31C002368013301D0FFF743FF09B0F0BD0720DC
:10A32C00FBE700BF042A0020082A00201C2A00207A
:10A33C00BCF80100FDA10100E8220020182A002031
:10A34C0070B5084D014608482E78FFF7FEFC044610
:10A35C0036B100232B70FFF723FF08B1FFF78EFCFB
:10A36C00204670BD182A0020082A002010B501468E
:10A37C000E48FFF7D8FC0446A8B90D480D4A0378DF
:10A38C00D35C63B1043001F071FD60B90A49074830
:10A39C00FFF7DBFC38B9BDE81040FFF715BF0C30F8
:10A3AC0001F028FBF1E7204610BD00BF1C2A00205D
:10A3BC00E8220020742A00202D2A002070B5EFF32B
:10A3CC00108672B60C4A946801239CB993600B4BAF
:10A3DC000B4DD3F8801029401160C3F88050D3F88E
:10A3EC00841051604FF0FF32C3F88420047006B91A
:10A3FC0062B670BD0370FAE7302A002000E100E07D
:10A40C00FC06FFBD084B9A6810B55AB150B9EFF372
:10A41C00108172B6054A1C6814605C6854609860C0
:10A42C0001B962B610BD00BF302A002000E100E087
:10A43C000346405882B028B100225A505B58019311
:10A44C00019B012002B07047F8B5204B4479204E97
:10A45C0043F824201F4A204B06EBC4049B1A227994
:10A46C00DB081B0432B143F002001C49FFF79AFAD7
:10A47C000820F8BD02680C88C2F8084590F9045011
:10A48C008A7804795201002DD2B219DB14494F1984
:10A49C0087F8002301226D0904F01F0402FA04F46A
:10A4AC0041F82540427906EBC201012446F83200FE
:10A4BC000C7143F003000B49FFF774FA0020D8E746
:10A4CC00094904F00F040A55ECE700BF442A0020A8
:10A4DC003C2A0020C0F60100F8F60100DCF801006F
:10A4EC0000E100E0FEF8010014ED00E00368012239
:10A4FC001A607047036801225A60704773B501F106
:10A50C005005AD000068ADB24FF480348C4000268D
:10A51C00C0F80843C0F84843465101F5A8714559A5
:10A52C00019522F07F42019D40F82120C0F8444360
:10A53C000BB1C0F8044302B070BD00002DE9F74F19
:10A54C000D4622F07F4402684FF4803705F1500627
:10A55C008F408046B60002EB8500C2F84873B6B255
:10A56C00C2F80873D2F8041599464FF0000BD0F8D6
:10A57C004035C0F8401542F806B05B1A925900926B
:10A58C0023F07F43012B009A4FEA850A0CD1264B0E
:10A59C004FF4806043F001039847D8F8003043F83B
:10A5AC0006B09B590193019BD8F80010D1F80465B3
:10A5BC00C1F84473A31B23F07F43012B1CD11A4B0E
:10A5CC0005F5A875013443F0010341F825404FF41B
:10A5DC0080609847D8F80030D3F804359E4209D1F2
:10A5EC00D8F800300020C3F84473C3F8047303B0E8
:10A5FC00BDE8F08F0D20FAE78A44C9F1FF13CAF8C1
:10A60C004045D1F80405221A013A22F07F4203F5A5
:10A61C007F439342EED3002AE2D10134CAF840457D
:10A62C00D1F804359842DAE710F9010003680222E8
:10A63C00C3F8442309B1C3F80423704700684FF4EE
:10A64C008271FFF7F5BE4FF4803303FA01F1036812
:10A65C00C3F84813C3F808137047503189000068D9
:10A66C0089B2FFF7E5BE0368D3F804057047000014
:10A67C0090F90430002B09DB5A09012103F01F0368
:10A68C0001FA03F34032024941F82230704700BF0F
:10A69C0000E100E0024B034A1B681068184700BF3A
:10A6AC00442A00203C2A002030B5054659B1B2FBA3
:10A6BC00F3F403FB1424A0B238B9C5E90010A86068
:10A6CC00AA81EB8130BD0E20FCE70920FAE737B5F3
:10A6DC0050E8013F9DB2C48925448489A54228BF16
:10A6EC002D1B0489A54202BFBFF32F8F002207E068
:10A6FC00C5EA030540E80154002CE9D14FF00102F2
:10A70C008DF803200193019A0A609DF8031001F063
:10A71C00FF0321B1006810FA82F003B030BD184677
:10A72C00FBE70A884B889A4209D150E8012FC2EA0C
:10A73C00024240E80123002BF7D101207047002092
:10A74C00704737B550E8023F1FFAA3F5C488A542FD
:10A75C0002BFBFF32F8F00220DE0C48925448489EA
:10A76C00A54228BF2D1BC3EA054540E80254002C26
:10A77C00E8D14FF001028DF803200193019A0A6091
:10A78C009DF8031001F0FF0321B1006800EB1240AB
:10A79C0003B030BD1846FBE70A884B889A4209D1B2
:10A7AC0050E8022FC2EA224240E80223002BF7D1E4
:10A7BC00012070470020704701F01F024B09012156
:10A7CC00914000EB830000F01EB801F01F03012242
:10A7DC009A404B0900EB8300D14300F02CB84B0995
:10A7EC0001F01F0150F82300C84000F00100704731
:10A7FC0010B5034653E8000F0A4643E8002494F0D2
:10A80C00000FF7D110BD10B5034653E8002F42EAF4
:10A81C00010043E8000494F0000FF6D110BD10B510
:10A82C00034653E8000F00EA010243E8002494F0C9
:10A83C00000FF6D110BD10B5034653E8002F02EA05
:10A84C00010043E8000494F0000FF6D110BD10B5E0
:10A85C00034653E8002F02EB010043E8000494F098
:10A86C00000FF6D110BD10B5034653E8002FA2EB34
:10A87C00010043E8000494F0000FF6D110BD012153
:10A88C00FFF7C1BF0021FFF7CABF10B590B1D0E9E7
:10A89C00012301689B1ADBB20A60013BDBB2FF2B80
:10A8AC00026802D10020107110BD11684C1C14609C
:10A8BC000B70F2E70E20F7E737B5054600240DF1D3
:10A8CC0007008DF80740FFF779FD2A686B6811685F
:10A8DC0099420ED9481E106011F8013CEC68298A87
:10A8EC0001FB0344AB6811791B1ADBB2994238BFE8
:10A8FC0013719DF80700FFF785FD204603B030BDAE
:10A90C0037B5054600230DF107000C468DF80730CE
:10A91C00FFF754FD2A681368591C1160E968641A22
:10A92C00298AB4FBF1F41C709DF80700FFF76AFD4F
:10A93C0003B030BD826810B504462AB14369016882
:10A94C00006998470023A36010BD0EB403B50399AA
:10A95C0021B104AB01AA019300F076F802B05DF8C6
:10A96C0004EB03B070470A2938B504460D4602D1F2
:10A97C000D21FFF7F8FFA3682268591CA160D5547C
:10A98C00D4E901329A4204D32046BDE83840FFF79F
:10A99C00D1BF38BD2DE9F84F9846DDE90A4315467D
:10A9AC0082460F460A464FF00109AA420FD2C14512
:10A9BC0038BFC14613F0010B01D16CB9002401263C
:10A9CC00B8F1010F1BD908F1FF386E43F8E709F114
:10A9DC000109B2FBF5F2E8E79B070ED5B8F1000FC1
:10A9EC000CBF30262026A145E9D2013C3146504609
:10A9FC00FFF7B9FF002CF6D1E0E72026F3E7B7FB11
:10AA0C00F6F39D42E1D9DFF83C80B7FBF6F35046F4
:10AA1C0018F8031006FB1377FFF7A5FF3346AB427C
:10AA2C00B6FBF5F6F1D2BBF1000F02D00CB1A1458B
:10AA3C0001D3BDE8F88F20215046013CFFF793FF6E
:10AA4C00F4E700BF16F901002DE9F74F054617464C
:10AA5C008846002900F03E8118F8011B49B92B7B70
:10AA6C00002B00F03781284603B0BDE8F04FFFF70C
:10AA7C0061BF252940F0B780002698F800302D2BB7
:10AA8C00424608F1010823D0302B24D02B2B25D0A3
:10AA9C0000242A2B02F1010123D13B681A1D1B68EB
:10AAAC003A601C440A4613782E2B26D101324FF003
:10AABC00000A104610F8011BA1F1300CBCF1090F73
:10AACC001DD80A2303FB0A13A3F1300A0246F0E750
:10AADC0046F00106D1E746F00206CEE746F0040642
:10AAEC00CBE711F8013CA3F130000928DBD80A228E
:10AAFC0002FB0434303C0A46CBE74FF0000A12F854
:10AB0C00011B01F0FB0068289046F8D0782909D881
:10AB1C006F290CD8632962D022D8252963D05829F3
:10AB2C0000F0888098F80030002B95D197E77039A9
:10AB3C000829F7D801A353F821F000BFBBAC0100E2
:10AB4C0031AB010031AB010051AC010031AB010064
:10AB5C002FAC010031AB010031AB010041AC010065
:10AB6C00642901D06929DDD13A68D2F80090111D11
:10AB7C0089EAE9723960A2EBE9724FF0010B092AFC
:10AB8C0035DCD34538BFD3462CB1B9F1000F01DB0E
:10AB9C00720700D5013CB30702D5BAF1000F03D000
:10ABAC00F00701D44CBB0024B9F1000F2DDAC9F128
:10ABBC0000092D212846FFF7D6FE06F00302022AD3
:10ABCC0004D1BAF1000F01D11CBB0024CDE9004621
:10ABDC0053460A2249462846FFF7DCFEA2E73B68AB
:10ABEC001A1D19783A602846FFF7BDFE9AE70A232A
:10ABFC000BF1010BB2FBF3F2C1E7A345D4D2202138
:10AC0C002846013CFFF7AFFECCE77107D5D52B21C9
:10AC1C00D0E7A345DAD230212846013CFFF7A3FE4A
:10AC2C00D2E73968CDE900460A1D3A6053460A223C
:10AC3C000968D0E739680A1D3A60CDE900465346E9
:10AC4C001022F5E73B681A1D3A6016F00106D3F89E
:10AC5C00009024D1B9F1000F03D0484604F0B6F9A6
:10AC6C000646B4421DD809F1FF3919F8011F002915
:10AC7C003FF458AF2846FFF776FEF6E72846013634
:10AC8C00FFF771FE19F806100029F7D1A642BFF4A0
:10AC9C0049AF20212846013CFFF765FEF6E7002668
:10ACAC00F0E720212846013CFFF75DFED9E73B6821
:10ACBC001A1D3A60302128461C68FFF754FE782193
:10ACCC002846FFF750FE00220823CDE9003221462A
:10ACDC00102280E703B0BDE8F08F00BF2DE9F84FDC
:10ACEC00B0F806A04579D2F800B09DF828900AFB80
:10ACFC0005F5043D88460BEB0301A94203F104045E
:10AD0C0088BFA5EB030BB4FBFAF607460AFB164407
:10AD1C00C2F800B04EB9AAEB04055D4528BF5D46EC
:10AD2C00BBF1000F04D1BDE8F88F3F68013EF1E79D
:10AD3C00043408EB06003C442A46B9F1000F0DD050
:10AD4C002146ABEB050B04F0C3F8DA452E443F6803
:10AD5C0055464FF0000428BF5D46E1E7014620460A
:10AD6C00EFE7FFF792BDF8B546790146721E05462E
:10AD7C00002393422D6803D30024A64202D8F8BDC9
:10AD8C000133F6E70F682846FFF7BAFD0134394660
:10AD9C00F3E72DE9F843068ACD1C0746FFF78CFD37
:10ADAC00043E35440446B5FBF6F5F0B14FF4807320
:10ADBC00EDB28380C680013D076081464FF00008EC
:10ADCC00A84512D23846FFF777FD064648B163799D
:10ADDC000133637108F10108C9F80000076081466E
:10ADEC00EEE72046FFF7BFFF34462046BDE8F88368
:10ADFC0001210430FFF72BBD10B5012104460430AE
:10AE0C00FFF731FDC0B220B92046BDE81040FFF776
:10AE1C00AABF10BD1FB503920022009203AAFFF730
:10AE2C005DFF05B05DF804FB1FB503920122009293
:10AE3C0003AAFFF753FF05B05DF804FB33DF70473F
:10AE4C0041DF70470D4A08B5002313700C4A13609C
:10AE5C00BFF35F8F0B490C4800F093F80B4A0C487A
:10AE6C000121FFF751F8024630B9BDE80840094806
:10AE7C004FF48041FFF75AB808BD00BF512A00209B
:10AE8C00542A002034F90100482A002069AF01003F
:10AE9C0030F901000023002008B503F04DFB18B178
:10AEAC00BDE80840FFF7CCBF20BF40BF20BF08BDA6
:10AEBC0070B5244D044601212846FFF799FCBFF3D9
:10AECC005F8F38B9042C0AD01F4B1A781AB1BFF314
:10AEDC005F8F286070BD1D4A147001221A701C4CC3
:10AEEC001A4E6368BBB9FEF797FDFEF70FFC0028FE
:10AEFC00FBD1164B1B78023B012B15D8BFF34F8FA0
:10AF0C001449154BCA6802F4E0621343CB60BFF3DB
:10AF1C004F8F00BFFDE71B68307898470028D6D0CC
:10AF2C00204600F038F8DCE703F006FB08B1FFF729
:10AF3C0085FF4FF080430122C3F80025BFF34F8FEC
:10AF4C0020BFFDE7542A0020512A0020502A00205F
:10AF5C00482A002000ED00E00400FA05034B1B78A2
:10AF6C0013B10420FFF7A4BF704700BF512A002083
:10AF7C00836800225A60C3E904229A60DA601A607E
:10AF8C0070470B684A684360934208BF0023016016
:10AF9C0008BF43607047436843B1026891685268C8
:10AFAC000B449342436004BF00234360704770B569
:10AFBC00446806460D46206818B1B3682946984780
:10AFCC0018B923682B60256070BD2468F3E74368CB
:10AFDC00186808B102681A607047436818687047AF
:10AFEC004368186800B97047884203D102681A6038
:10AFFC000120704703460068F4E7000010B50D49C6
:10B00C00A1F59472914201D800200FE08C1AE30F45
:10B01C0003EBE4035B1002EBC30452F833308342BE
:10B02C0005D802D204F10802ECE7606810BD214695
:10B03C00E8E700BF40FE010008B5FFF7DFFF024B59
:10B04C00002808BF184608BD03FD010010B50446D2
:10B05C00C0B2FFF78BF9204610BD4FF08053D3F8E8
:10B06C003001A0F10E0358425841704708B5FFF764
:10B07C00F4FF48B14FF080534FF08042D3F8443284
:10B08C00C3F34233C2F83C35FFF7E7FF40B14FF052
:10B09C0080430022C3F80C21C3F81021C3F83825D3
:10B0AC00FFF7DBFF002846D04FF08052304BD2F830
:10B0BC000414C3F82015D2F80814C3F82415D2F8D8
:10B0CC000C14C3F82815D2F81014C3F82C15D2F8A8
:10B0DC001414C3F83015D2F81814C3F83415D2F878
:10B0EC001C14C3F84015D2F82014C3F84415D2F838
:10B0FC002414C3F84815D2F82814C3F84C15D2F808
:10B10C002C14C3F85015D2F83014C3F85415D2F8D7
:10B11C003414C3F86015D2F83814C3F86415D2F897
:10B12C003C14C3F86815D2F84014C3F86C15D2F867
:10B13C004424C3F87025FFF790FF48B14FF08043CB
:10B14C00D3F80024D20744BF6FF00102C3F80024E7
:10B15C00FFF783FF38B14FF08042D2F8E43E43F062
:10B16C000F03C2F8E43E034B034A1A6008BD00BF4C
:10B17C0000C00040202300200090D0034FF0A043DB
:10B18C00D3F804056FEA905000F0010070474FF0BF
:10B19C00A0434FF48002C3F80C2570474FF0A04336
:10B1AC004FF48002C3F8082570474FF0A0434FF4CA
:10B1BC008002C3F8082570474FF0A0434FF480027B
:10B1CC00C3F80C2570474FF0A042D2F80435D94390
:10B1DC0001F4800103F48003C2F80815C2F80C35A1
:10B1EC007047C30706D54FF0A0430322C3F8582776
:10B1FC00FFF7DBBF7047000038B5074C051E04F1A4
:10B20C00080318BF1C4623682BB11A6822605B68C0
:10B21C0028469847F7E738BD602A002020B9054B2F
:10B22C0001225A70FFF7E8BF012802D1014A907041
:10B23C00F8E77047582A002020B9034B01225A70B6
:10B24C00FFF7DABF704700BF582A002038B50E4C04
:10B25C002378B3B90D486360A3602361E36000F009
:10B26C00E7F8054603F068F908B900F0EDF801239A
:10B27C002370074BD3F800340BB10123A37028467D
:10B28C0038BD8525F5E700BF582A002029B20100FA
:10B29C000000014037B50D4C00230DF107008DF86F
:10B2AC000730FFF78BF8E368013BE360E36833B9E1
:10B2BC00074BD3F8005415B900F0D8F8A5709DF8D9
:10B2CC000700FFF79FF803B030BD00BF582A0020DD
:10B2DC0000000140012813B50CD0032820D038B948
:10B2EC00134B0122C3F88020BFF34F8FBFF36F8F36
:10B2FC0002B010BD0F4C00230DF107008DF8073084
:10B30C00FFF75CF823780BB9FFF7A0FFE3689DF813
:10B31C0007000133E3600123A370FFF773F8E7E73D
:10B32C0000F092F802B0BDE81040FFF7B3BF00BFC9
:10B33C0000E100E0582A00201FB503788DF800309A
:10B34C004368019383688DF80830C368054A0393FA
:10B35C00054B684653F8213052F82110984705B038
:10B36C005DF804FB6C2A0020702A00201FB50378BE
:10B37C008DF800304368019383688DF80830C368FA
:10B38C00054A0393054B684653F8213052F82110B7
:10B39C00984705B05DF804FB6C2A0020702A002049
:10B3AC00F0B5194B90F800C091F81DE043F82C2033
:10B3BC00164B16460A6943F82C20154B03F80CE083
:10B3CC000C4607460FCC89B06D460FC594E80F00AC
:10B3DC0085E80F00CDF810C0BEF1000F09D0002E8B
:10B3EC000C4A694608BF3246381D00F07DFC09B096
:10B3FC00F0BD002E084A694608BF324607F10C0022
:10B40C0000F044FAF3E700BF702A00206C2A0020F9
:10B41C00742A002045B3010079B3010000F180408B
:10B42C00002382B0036003680193019B02B0704754
:10B43C00044B0246187918B91A6001221A71704728
:10B44C0085207047782A0020074B1A68D20704D44D
:10B45C00C02283F8002301221A604FF0804301229E
:10B46C00C3F81825704700BF00E100E04FF08042A0
:10B47C0008B50223C2F808334FF48270FFF7CEFFF1
:10B48C000123D360D2F81834DB03FBD408BD0000D1
:10B49C004FF0804210B5D2F8003153B14FF48070A8
:10B4AC00FFF7BCFF0123C2F808330B4B00201B68CD
:10B4BC0098474FF08042D2F8043163B14FF4827058
:10B4CC00FFF7ACFF0223C2F80833034BBDE8104072
:10B4DC001B680120184710BD782A002000F180401D
:10B4EC0000F5C040002382B0036003680193019B08
:10B4FC0002B07047800000F1A040D0F8002722F481
:10B50C004032C0F80027D0F8003743EA0143C0F8B6
:10B51C00003770472DE9F74F00244E4D01944FF43E
:10B52C008072012102F1804303F5C04390B21B6885
:10B53C00012B06D1D5F804330B4202D0FFF7CEFF16
:10B54C000C430432B2F5907F4FEA4101EAD1414BF2
:10B55C00D3F87C31012B0CD14FF4BE70FFF7BEFF3A
:10B56C004FF0A04344F00044D3F820250192C3F8D7
:10B57C002025E3B2D3B1384F00250126344210D038
:10B58C00AB0003F1804303F5C043D3F81005D3F8A7
:10B59C00101557F8253023B1C1F30141C0F3042035
:10B5AC0098470135082D4FEA4606E7D1002C48DABA
:10B5BC00294D4FF0A048294E4FF00009012716F9EC
:10B5CC00013B5A1C31D0C3F3C20208326A44DCB2CC
:10B5DC0012F8042C03F03F0A03F0070307FA03F3F5
:10B5EC001A4222D00AF5E073504658F82330C3F3C0
:10B5FC00014BBBF1020F0CBF03210221FFF77AFFB5
:10B60C0007FA0AF3C8F8203505EB0A0393F9303032
:10B61C0055F823304BB1A109032904D0BBF1020F1B
:10B62C0012D1012901D15046984709F10109B9F10C
:10B63C00040FC4D1D8F820350193C8F82035002B5D
:10B64C00B9D103B0BDE8F08FBBF1030FEDD10229E6
:10B65C00E8E700BF00600040802A0020D02A0020CC
:10B66C00014B1B68184700BFDC2A00200E4B984288
:10B67C0037B50C4602D0002003B030BD00230DF1CD
:10B68C0007008DF80730FEF799FE084B1D7915B9A8
:10B69C0001221C601A719DF80700FEF7B3FE002D05
:10B6AC00E9D01120E8E700BF00200040DC2A002090
:10B6BC000023435082B043580193019B02B0704762
:10B6CC000A4610B54FF48E71FFF7F2FF136A9168BA
:10B6DC00C95C136A01331362C0F81C1510BD024615
:10B6EC0008B500684FF49271FFF7E2FF10684FF451
:10B6FC008471FFF7DDFF136801221A6008BD8B69A6
:10B70C000A4610B54FF4847123B9FFF7D1FFD0F876
:10B71C00183510BDFFF7CCFF536AD168D0F8180567
:10B72C00C854536A01335362F3E700001FB5012379
:10B73C008DF80030044BCDE90110D3E900126846B6
:10B74C00904705B05DF804FBE42A002030B54D4D60
:10B75C00D5F804339A0585B051D5D5F82431002B92
:10B76C004DD04FF492712846FFF7A2FF4FF40173AE
:10B77C00C5F80833444B93F829200AB901226A60B2
:10B78C00404902228DF80020D1F88024C1F8802491
:10B79C0003929A690292DA6801920022C3E90622A6
:10B7AC006846D3E9001290473648D0F81C315BB19B
:10B7BC00354A5169136A99424DD992F82830002BB9
:10B7CC0049D11146FFF77CFF2E48D0F84431002BAD
:10B7DC0056D04FF4A271FFF76BFF2B4B93F8292037
:10B7EC000AB1012202609A69002A49D0586AD968C4
:10B7FC0000229A6105B0BDE83040FFF797BFD5F83D
:10B80C0004335B07D0D5D5F80831002BCCD01E4CB7
:10B81C001C482146FFF773FF636AA2699A42C3D1A1
:10B82C00E369E1684BB1A3612369E3600023606ABB
:10B83C00E3616362FFF77AFFB6E794F829300BB93E
:10B84C0001236B600F4B4FF40172C3F808230023E4
:10B85C00606AA361EEE70B484FF48E71FFF728FF87
:10B86C005369002BB0D051690291002391688DF877
:10B87C000030019153616846D2E900139847A3E761
:10B88C0005B030BD00200040E42A00202DE9F8432B
:10B89C00534D90F804802C2303FB0853064693F871
:10B8AC002A300C469146002B40F096804D4900689A
:10B8BC00FFF7DCFE0746002840F0908022683068D5
:10B8CC00511C0BD04FF0A04101239340C1F8083517
:10B8DC0002F5E0734FF0030C41F823C061684B1C78
:10B8EC001FBF01F5E0734FF0A04C4FF0000E4CF869
:10B8FC0023E0A369C0F8243594F814C0637DBCF12F
:10B90C00010F4CEA0303C0F86C35C0F81415C0F8ED
:10B91C000C251DD1A268531C1FBF02F5E0734FF01C
:10B92C00A0414FF0000C41F823C0E368591C0BD028
:10B93C004FF0A04C01219940CCF8081503F5E071AB
:10B94C004FF0030E4CF821E0C0F80835C0F8102574
:10B95C002C2202FB08F2AB18C3F804902369AB50FD
:10B96C00B9F1000F20D04FF48E71247FFFF7A0FEA9
:10B97C004FF4A2713068FFF79BFE32681A4BC2F885
:10B98C000433130B42F307326101002AC9B21EDBE8
:10B99C001648841884F800130121520903F01F0380
:10B9AC0001FA03F340F8223033680422C3F800256F
:10B9BC002C2303FB08530022C3E9062283F8292019
:10B9CC005A61012283F82A203846BDE8F883084AD8
:10B9DC0003F00F03D154E7E70827F5E71127F3E746
:10B9EC00E42A002059B701008000020000E100E0C9
:10B9FC0014ED00E00279044B2C2101FB0233586951
:10BA0C00003818BF01207047E42A00202DE9F84FB8
:10BA1C00064690F8048089469246FFF7EBFF0446F1
:10BA2C0000283CD1204F2C2508FB057B4FF48E7150
:10BA3C00CBF814A0CBF80890CBF820008BF828009A
:10BA4C003068FFF735FE3068012383605946FFF7F5
:10BA5C0037FEDBF804305D461BBB3068DBF8144066
:10BA6C002B6A9C4211D83368D3F81C21002AFBD0D6
:10BA7C000122DA6000202C2303FB087700237B6172
:10BA8C00BDE8F88F95F828303BB9D0F81C31002B65
:10BA9C00F8D05946FFF714FEE2E70F20EBE7112030
:10BAAC00EEE72046ECE700BFE42A00202DE9F04742
:10BABC003A4D07792C2303FB075306465C6824B1E7
:10BACC0003684FF40170C3F808032C2303FB0753DE
:10BADC00986950B1D869002841D024B133684FF42B
:10BAEC000172C3F80423112436E09A61D9605862BC
:10BAFC00D8612C2303FB075393F829301BB910B9D9
:10BB0C003046FFF7ECFD4FF02C0808FB075A306865
:10BB1C00DAF80430002B37D14FF4A271D046FFF77E
:10BB2C00C7FD3068D0F82491D0F80831D0F84441E2
:10BB3C00CBB914B9B9F1000FF3D02C2303FB075583
:10BB4C000023AB61B9F1000F24D12CBB95F829105F
:10BB5C0033680122B1B11A602046BDE8F087196143
:10BB6C00DA610120C5E7B9F1000FE6D1002CE4D170
:10BB7C004146FFF7C4FDDAF82430DAF818209A426F
:10BB8C00CFD8DAE75A60E7E74FF40173C0F8043313
:10BB9C000024E1E70324DFE70F24DDE7E42A00209B
:10BBAC000023435082B043580193019B02B070476D
:10BBBC001FB501238DF80030044BCDE90110D3E9FA
:10BBCC0000126846904705B05DF804FB102B00206E
:10BBDC007FB5434AD2F82461002E60D010464FF452
:10BBEC009271FFF7DDFF02238DF80030D2F880341C
:10BBFC00C2F880340393D2F83C350293394BDA689F
:10BC0C0001920022C3E906226846D3E9001290474C
:10BC1C003348D0F8443173B14FF4A271FFF7C0FF31
:10BC2C00304B9A693AB10022C3E90622D968D0F8A0
:10BC3C003C05FFF7BDFF2A48D0F82031ABB14FF4DB
:10BC4C009071FFF7ADFF0123C360264B5A6962B1B7
:10BC5C00D0F84C150291002299688DF800200191C2
:10BC6C005A616846D3E9001290471D48D0F8583104
:10BC7C009BB14FF4AC71FFF793FF1A4B5A6962B149
:10BC8C00D0F84C150291002299688DF80020019192
:10BC9C005A616846D3E90012904704B070BDD2F8DF
:10BCAC001031002BB4D04FF488711046FFF778FF99
:10BCBC000C4BD2F83C0599698842A9D1DC69D9684A
:10BCCC0064B1D2F8005225F02005C2F800521A696E
:10BCDC009C61DA60DE61FFF76BFF99E79C61FAE724
:10BCEC0000200040102B00202DE9F8435A4E90F80C
:10BCFC000480242303FB0863044693F820300D468C
:10BD0C009146002B40F0A38054490068FFF7AEFC2D
:10BD1C000746002840F09D802A682068511C0BD0F3
:10BD2C004FF0A04101239340C1F8083502F5E073B0
:10BD3C004FF0030C41F823C069684B1C1FBF01F581
:10BD4C00E0734FF0A04C4FF0000E4CF823E0AB69C1
:10BD5C00C0F8243595F814C06B7DBCF1010F4CEA8A
:10BD6C000303C0F86C35C0F80C25C0F814151DD1B0
:10BD7C00AA68531C1FBF02F5E0734FF0A0414FF0AF
:10BD8C00000C41F823C0EB68591C0BD04FF0A04CB1
:10BD9C0001219940CCF8081503F5E0714FF0030E22
:10BDAC004CF821E0C0F80835C0F81025242202FB1D
:10BDBC0008F2B318C3F804902B69B350B9F1000F13
:10BDCC002FD04FF488712A7FFFF7EAFE20684FF4DA
:10BDDC009071FFF7E5FE20684FF49271FFF7E0FEDB
:10BDEC0020684FF4A271FFF7DBFE4FF4AC712068B2
:10BDFC00FFF7D6FE23681A49C3F80413190B43F353
:10BE0C0007335201002BD2B21CDB1648C51885F83B
:10BE1C00002301225B0901F01F0102FA01F140F835
:10BE2C00231023680822C3F80025242303FB08668B
:10BE3C000023C6E906337361012386F820303846A7
:10BE4C00BDE8F883084B01F00F015A54E9E70827C5
:10BE5C00F5E71127F3E700BF102B0020DDBB010035
:10BE6C001003420000E100E014ED00E00279044B05
:10BE7C00242101FB02335869003818BF0120704798
:10BE8C00102B002001F06043B3F1005F2DE9F04767
:10BE9C000646884692463BD190F80490FFF7E6FFA1
:10BEAC000446002836D11D4F3068242505FB097542
:10BEBC004FF49071C5F814A0C5F80880FFF770FE18
:10BECC004FF4AC713068FFF76BFE33686A69A96890
:10BEDC00C3F84415C3F8482501229A606A68DAB998
:10BEEC00D3F82021D3F858011AB90028F8D00F2024
:10BEFC0007E00028FBD10122DA60D3F85821002A90
:10BF0C00FBD0242303FB097700237B61BDE8F0877A
:10BF1C001020FBE71120F9E72046F7E7102B002053
:10BF2C00F8B501F06043B3F1005F04460F465ED1F3
:10BF3C000379304D242101FB0351496821B100687C
:10BF4C004FF40476C0F80863242000FB03539E6969
:10BF5C0056B1D869002839D021B123684FF4047246
:10BF6C00C3F80423112030E09A61DF60DE612068A1
:10BF7C004FF48871FFF714FE20684FF4A271FFF79D
:10BF8C000FFE2368C3F83475C3F8382516BB01229D
:10BF9C001A602479242202FB045252680ABBD3F89B
:10BFAC001011D3F84421D3F82401114302D10028F5
:10BFBC00F5D00A46242303FB04550023984218BFEE
:10BFCC0003209A42AB6118BF0F20F8BD1F61DA61E4
:10BFDC000126CCE7D3F8002242F02002C3F800225D
:10BFEC00D7E74FF40472C3F804230020EDE71020C8
:10BFFC00EBE700BF102B00200220FFF7E4B8000095
:10C00C00034B1B7813B10020FFF7C8B8FFF7CDB86E
:10C01C00342B0020F8B57A4C237805461BB100234D
:10C02C002370FFF7EDFF172D00F28780DFE805F096
:10C03C000C1717425364757F878C878C9499999948
:10C04C009999C3C8D0D8E3E3FFF7DAFF6D48FDF741
:10C05C009BFF6D4B002204461A702046F8BD002051
:10C06C00FFF78CF8F0B10020FFF798F8022D0CBF09
:10C07C004FF4E1644FF47A64634B1D7000254FF468
:10C08C0000464FF47A7029464FF4FA620023E4FB21
:10C09C00060102F0A5FD2A460146BDE8F8405948C4
:10C0AC00FDF744BFFFF773F8022D0CBFC8244FF403
:10C0BC00C874E1E70020FFF761F840B10020FFF7FA
:10C0CC006DF84FF44874504B03221A70D6E7FFF703
:10C0DC005EF8C824F7E70020FFF750F838B10020CD
:10C0EC00FFF75CF84FF47A64474B0422EDE7FFF757
:10C0FC004EF84FF4C874F7E70020FFF73FF848B14B
:10C10C000020FFF74BF8404B05221A7040F6CD414A
:10C11C000022C2E7FFF73BF8F5E70020FFF753F8E2
:10C12C00394B06221A70002240F26661B5E70020F6
:10C13C00FFF72DF8344B07221A7000248DE70120ED
:10C14C002070FFF740F8EEE701202070FFF73BF876
:10C15C0000224FF40051A0E7FFF72EF82A4B0C22D7
:10C16C00EAE72A482A4EFDF70FFFD5F111050446E0
:10C17C001CD0D8B9012D13D0C820454321464FF40B
:10C18C0000474FF47A704FF4FA620023C5FB0701A5
:10C19C0002F026FD224601461C48FDF7C7FE044668
:10C1AC000220FEF7F4FF0123337056E70220FEF75E
:10C1BC00F5FF0023F8E7FFF723FF134B1222BBE731
:10C1CC00FFF71EFF0020FEF7E2FF0F4B1322B3E731
:10C1DC00FFF716FF0120FEF7DAFF0B4B1422ABE73B
:10C1EC00FFF70EFF0020FEF7D2FF0120FEF7CFFF76
:10C1FC00054B1522A0E7FEF7DFFF034B1D709CE7F4
:10C20C003C2B0020482300203D2B0020282300201D
:10C21C00342B0020044B1B68DB0703D5034B187829
:10C22C00FFF7F8BE704700BF382B00203D2B0020D5
:10C23C00044B1B6813F0010301D0FFF7EBBE18464B
:10C24C00704700BF382B002008B50B4B186010F05E
:10C25C0001000FD00120FEF7C4FF084A0848002156
:10C26C00FDF752FE30B9BDE80840064A06480121E8
:10C27C00FDF74ABE08BD00BF382B002021C20100CB
:10C28C0068FE010005C0010064FE01000720704734
:10C29C000620704708B5012202210020FFF7F6FFA7
:10C2AC0008B1072810D1072202210120FFF7EEFF69
:10C2BC0008B1072808D100210A220846FFF7E6FF3B
:10C2CC0010B1072808BF002008BD00000388102B00
:10C2DC0010B502D0112B1ED010BD1A4C2168B1B96B
:10C2EC0001220846FFF7D2FF08B1072824D1072204
:10C2FC0002210120FFF7CAFF08B107281CD1042234
:10C30C0002210020FFF7C2FF08B1072814D12368CF
:10C31C0001332360E0E70B4A1368013B1360002BE9
:10C32C00DAD1FFF7B7FF0028D6D0074B1B68002BDC
:10C33C00D2D0BDE810401847034B1B68002BE6D049
:10C34C009847E4E7442B0020402B002008B5002040
:10C35C00FFF79EFF08B1062806D10120FFF798FFD2
:10C36C0010B1062808BF002008BD0000044B18605F
:10C37C00044B1B680BB9FFF78DBF0020704700BF43
:10C38C00402B0020442B002076DF70477ADF70476B
:10C39C007CDF70477FDF70478FDF7047B1DF7047FE
:10C3AC0033DF704702460D4B0D481B1ADB08012A80
:10C3BC004FEA034007D0022A09D040F0030052B9DB
:10C3CC000849FDF7EFBA084940F00300F9E70749BF
:10C3DC0040F00100F5E70649F3E700BFE8F601007D
:10C3EC00C0F601006CFE01009BFE0100BFFE0100C7
:10C3FC00E8FE0100FDF742BC08B50020FFF718FF6E
:10C40C0008B1FDF73BFCFFF7A1FF08B1FDF736FCC7
:10C41C00FFF7C6FF18B1BDE80840FDF72FBC08BDFB
:10C42C000388212B13B504463FD007D8112B2DD0F0
:10C43C00132B48D0102B0CD002B010BD522B4AD06D
:10C44C00562B01D03B2BF7D1A0881321FFF79CFF73
:10C45C0015E0254B25482649C01AC008000440F0B9
:10C46C000300FDF79FFA0720FFF7E2FE08B1FDF786
:10C47C0005FC204BA1882048198001F0C1FD002843
:10C48C00DAD002B0BDE81040FDF7F8BB164B1748E8
:10C49C001A49C01AC008000440F00300FDF782FAE4
:10C4AC00144B4FF6FF721A80C6E7002380888DF874
:10C4BC00043001A98DF80530FFF76EFF0028BBD0C2
:10C4CC00FDF7DCFBB8E70B4800231A4685210088F2
:10C4DC00FFF760FFD3E7074800231A461946008888
:10C4EC00FFF75CFFCBE700BFC0F60100E8F60100E8
:10C4FC0006FF01006C230020402F002010FF0100DC
:10C50C00022810B50ED10848084C0949241AE40831
:10C51C00240444F003042046FDF744FA0549204660
:10C52C00FDF740FA012010BDC0F60100E8F601004D
:10C53C001DFF01004BFF010008B503784BB9054BFB
:10C54C003B211888FFF720FF18B1BDE80840FDF724
:10C55C0095BB08BD6C230020072808B513D00A280A
:10C56C000DD0042819D10D4B13211888FFF70CFF9F
:10C57C0030F0080311D0BDE80840FDF77FBBBDE8E3
:10C58C000840FFF739BF054B1A884FF6FF739A42E4
:10C59C0003D1034801F05BF9EAE708BD6C230020E6
:10C5AC00342E002008B548B103280BD10220FFF728
:10C5BC003FFE38B1BDE80840FDF760BBBDE8084060
:10C5CC00FFF71ABF08BD00000C4B4A881B889A4223
:10C5DC0012D10A8840F677239A420DD1084A0948AD
:10C5EC008B880949801A033BC0089BB200041A4689
:10C5FC0040F00300FDF7E3B9704700BF6C23002047
:10C60C00C0F60100E8F601007BFF0100FDF736BB28
:10C61C002DE9F041037806468BBB1A4C642544F097
:10C62C0001044FF47A40A047013DFAD1164C174B48
:10C63C00DFF85C80E41AE408240444F00104B28AB4
:10C64C0095420AD33369134413F8013C0D2B16D1D0
:10C65C000A20FDF78BFE1128F9E73369585DFDF7C9
:10C66C0085FE074648B11128F7D0024641462046C0
:10C67C00FDF79CF93846FDF701FB0135DFE7BDE816
:10C68C00F08100BF10000200E8F60100C0F60100C6
:10C69C0097FF010038B50F4D0F4C2B680F491A68E6
:10C6AC00204602F0EBFB2B680D4D5A680D492846CD
:10C6BC0002F0E4FB2B7823726B786372AB780A4A36
:10C6CC00A372EB78E3722368136063685360A3680A
:10C6DC00936038BD942300205C300020C2FF010021
:10C6EC0068300020C7FF0100482B002008B508491E
:10C6FC00084801F09CFB08B1FDF7C0FA0548F7218A
:10C70C0001F0A4FB18B1BDE80840FDF7B7BA08BDAD
:10C71C00D5C501002C2F002070B50B4E0B4C356885
:10C72C0060556019417018440D218170A91C0C448E
:10C73C0000218B4203DC03332B44336070BD505615
:10C74C0004F8010B0131F4E750300020A42C002038
:10C75C000C4B0D48002119700C4B19700C4B1970B7
:10C76C000C4B19700C4B19700C4B19600C4B19605D
:10C77C000C4B19600C4B19600C4B8022197002F099
:10C78C00D0BB00BF2D2E0020AD2D00202F2E002061
:10C79C00753100202E2E002074310020A82D002091
:10C7AC00A42D002054300020583000204D300020A3
:10C7BC002DE9F7430378012B00F0DC80022B00F00D
:10C7CC00D980002B40F0C7806D4C6E4D2046FDF794
:10C7DC00B7FD21782B786C4A6C48D154432905D18C
:10C7EC00D41814F8014C432C08BF0360006878B1CE
:10C7FC00063083420CD1664F386802EB030C0624DA
:10C80C001CF80169013CA6F130063044F8D13860BF
:10C81C005629604805D1D41814F8014C532C08BF84
:10C82C000360006878B1063083420CD15A4F3868E7
:10C83C0002EB030C06241CF80169013CA6F130063E
:10C84C003044F8D138604529544C05D1D01810F833
:10C85C00010C452808BF237094F9000090B10630F4
:10C86C0083420FD1DFF838C19CF9000002EB030EB4
:10C87C0006261EF8017930383844013E40B2F8D112
:10C88C008CF80000572905D1D01810F8010C572846
:10C89C0008BF2370434890F9000080B106308342F2
:10C8AC000DD1414F97F9000002EB030C06241CF844
:10C8BC00016930383044013C40B2F8D138703B4803
:10C8CC003E243129047006D1134413F8013C4D2B3E
:10C8DC0004BF01232B702E4B1B68002B03DC2E4B4B
:10C8EC001B68002B01DD482303702D4B93F900309E
:10C8FC00002B04DC2C4B93F90030002B01DD0823BA
:10C90C0003702B4E33781BB12A4B1B789B000370A2
:10C91C002B7802789A422AD1DFF89C901A4FDFF8D4
:10C92C009C8032782B78ADF80630B9F80030AAB973
:10C93C000DF106023946404601F012FD0446FFF7A0
:10C94C0007FF082C07D0132CEBD0052C03D014B107
:10C95C002046FDF793F903B0BDE8F0830022327056
:10C96C0039460DF10602404601F02CFDE6E7013395
:10C97C002B70F0E7406803B0BDE8F043FDF77EB9DB
:10C98C00AC2D00202D2E0020AD2D0020A82D002038
:10C99C00A42D002058300020543000202F2E0020D1
:10C9AC002E2E002075310020743100204D300020D7
:10C9BC00302E00204C2F00206C23002070230020F0
:10C9CC0010B5044B01220C461A70FFF7C1FE024B46
:10C9DC001C7010BD302E00204C2F002073B500238E
:10C9EC001A4C8DF807301A4B1A4EE41AE40824043A
:10C9FC00054644F003040DF10700FDF7A1FC0028E7
:10CA0C00F9D19DF8072031462046FCF7CFFF9DF861
:10CA1C000730002BEFD12C463DB10F4D45F00105F1
:10CA2C004FF47A40A847013CFAD1DF20FDF79EFC79
:10CA3C000020FDF79BFC0020FDF798FC0020FDF783
:10CA4C0095FC0D20FDF792FC02B070BDE8F60100DC
:10CA5C00C0F60100CCFF01001000020037B5134CEA
:10CA6C00134D432104F1C70208460623FFF754FE79
:10CA7C0004F1CF020F4C062356215320FFF74CFE36
:10CA8C002368ADF806300C4B0C481B880DF10602E0
:10CA9C00294601F097FC4FF480720021284602F0E1
:10CAAC0040FA0023236003B030BD00BF482B0020A8
:10CABC00A42C0020503000206C2300207023002078
:10CACC00F0B5084C084D00220D278A4200DBF0BD62
:10CADC00865C236826B1EE54013323600132F4E7FF
:10CAEC00EF54F9E7202C0020242C002013B5124C15
:10CAFC000C212046FFF7E4FF04F10C000821FFF79E
:10CB0C00DFFF04F126000921FFF7DAFF04F114001E
:10CB1C000A4C1221FFF7D4FF2368ADF80630084BFE
:10CB2C0008491B8808480DF1060201F04BFC002354
:10CB3C00236002B010BD00BF482B0020202C002029
:10CB4C006C230020242C0020702300202DE9F041C0
:10CB5C000446DF200D46FDF709FC2046FDF706FCD8
:10CB6C000F2C10D8DFE804F00D08282B2E31373E9F
:10CB7C00410F0F0F0F0F0F0823480C21FFF7A0FFD9
:10CB8C0001E000F057F8214C214B224E224FDFF8E8
:10CB9C008C80E41AE408240444F0030400253B6868
:10CBAC00AB4225DCFCF7B2FD0028FBD13860BDE8B8
:10CBBC00F041FF20FDF7DABB19480821DEE71948E0
:10CBCC000921DBE718481221D8E70F4800EBC50014
:10CBDC0004214730D2E70C4800EBC5000421873014
:10CBEC00FFF76EFF11480821C8E711480821C5E777
:10CBFC003078FDF7BBFB16F8012B41462046FCF7BD
:10CC0C00D5FE0135CBE700BF482B0020E8F601002C
:10CC1C00C0F60100242C0020202C0020D8FF01009D
:10CC2C00542B00206E2B00205C2B00200F2C00209E
:10CC3C00172C002008B5DF20FDF798FB0020FDF72E
:10CC4C0095FB0020FDF792FB0020FDF78FFB0D20DC
:10CC5C00FDF78CFB00210120FFF778FF6420FFF724
:10CC6C00BDFE00210220FFF771FF6420FFF7B6FE26
:10CC7C00BDE8084000210320FFF768BF00B56D4DEB
:10CC8C00B1B0FFF707FD0FCD05AC0FC495E803005D
:10CC9C00694B6A4A01934FF4807384E80300CDE931
:10CCAC0003230293664A072301A905A8FDF7F0FAAE
:10CCBC0008B1FCF7E3FF4FF480410020FCF7D4FCF3
:10CCCC0008B1FCF7DBFFFCF70FFCFDF7EBF808B144
:10CCDC00FCF7D4FF5B490320FFF7B6FA08B1FCF769
:10CCEC00CDFF05A90020FFF741FB08B1FCF7C6FFFB
:10CCFC00FEF7A8F808B1FCF7C1FF01F0DFFB08B1A3
:10CD0C00FCF7BCFF002305A90120059301F068FC8A
:10CD1C0008B1FCF7B3FF05A801F026FD08B1FCF73C
:10CD2C00ADFF112348488DF8043002F04FF9464905
:10CD3C0082B201A8FFF72CFB08B1FCF79FFF002380
:10CD4C00ADF818301023ADF814303C23ADF8163084
:10CD5C0005A84FF4C873ADF81A30FFF717FB08B1EC
:10CD6C00FCF78CFFFFF7C2FC384B3948019301A943
:10CD7C0001F034F908B1FCF781FF364B36480093CB
:10CD8C00694601F071FA08B1FCF778FF334B059353
:10CD9C0005A801F01DFE08B1FCF770FFAC220021C4
:10CDAC0005A802F0BEF802238DF8143006238DF886
:10CDBC0017300123ADF860308DF890304023284AAD
:10CDCC0027932848284B199205A92E9300F09BFB1A
:10CDDC0008B1FCF753FF2348012100F091FB14220A
:10CDEC000DEB0200002102F09CF84FF4F0234FF4FD
:10CDFC00A032CDE9062303238DF820301B4B0A9378
:10CE0C0005A81B4B0B9300F041FE08B1FCF736FF55
:10CE1C00184802F019F81348032100F0E4FB08B19C
:10CE2C00FCF72CFFFCF772FC0028FBD1FEF734F862
:10CE3C00F8E700BFF0FF01004D2F002074300020F8
:10CE4C00BDC7010065C50100482B002001C40100CD
:10CE5C00402F00201DC6010070230020B1C301002B
:10CE6C0068230020342E0020B1C5010045C5010007
:10CE7C0019C60100DBFF01000369C26893429CBF25
:10CE8C0080681B18013B981A70472DE9F843D0E9CC
:10CE9C0002940546A9EB04084068904520440F46CF
:10CEAC00144404D902F014F8EC60BDE8F88342464F
:10CEBC00A4EB090402F00CF86868224607EB0801A1
:10CECC00F0E72DE9F843C5680646894617464FF04A
:10CEDC0000083469B3687068A54228BFE418013CA7
:10CEEC00621B5C1BBC4228BF3C46944228BF1446C4
:10CEFC0049462844224601F0EBFFB3682544AB4277
:10CF0C0008BF00253F1BA044A144F560E1D1404679
:10CF1C00BDE8F88310B5114C114AA2610223C4E993
:10CF2C000433104BE361A2644FF400730E4A0F49B3
:10CF3C002362E26400231022E01DA3626362E362B9
:10CF4C00A3656365E365226502F01EF80849204677
:10CF5C0002F01AF82023A37110BD00BF7831002015
:10CF6C001600020000320020F03100201F000200E9
:10CF7C002300020070B5164B182400FB04451D4419
:10CF8C0004FB00331646DC6A012C0ED0022C18D0A0
:10CF9C00E4B92846FFF770FF864204D8324628468B
:10CFAC00FFF773FF3446204670BD2846FFF764FF39
:10CFBC008642344628BF044622462846FFF765FFC2
:10CFCC00F1E72846BDE87040FFF77BBF0024EAE795
:10CFDC0078310020FFF79EBF6DDF704779DF704717
:10CFEC007DDF704764DF70472DE9F04F85B0002579
:10CFFC000E9CBDF83CB0B4F800A0019107469046D9
:10D00C001E46A9463A884A450DDC45B12388013BAA
:10D01C00A3EB0A039BB2FF2B3AD806F80A30002088
:10D02C0005B0BDE8F08F7A6852F829000390002211
:10D03C000DF10B0103A8FFF7D5FF0028F0D19DF8E7
:10D04C000B20424521D12288002D14BF0020022044
:10D05C0002EB0801014459451ADC3DB9013292B288
:10D06C00019B2280B35422880132228022880DF148
:10D07C000B01324403A8FFF7B5FF0028D0D121885B
:10D08C009DF80B200A442280012509F10109B9E71A
:10D09C000C20C5E72DE9F341089FBDF82480154607
:10D0AC00CDE90078022204461E46FFF79DFF50B9D9
:10D0BC003346102229462046CDE9087802B0BDE857
:10D0CC00F041FFF791BF02B0BDE8F0812DE9F04FC0
:10D0DC0000231788138090F82D3085B006460D4636
:10D0EC0014465BB3082F01D80C2028E102A8FFF7E7
:10D0FC0073FF002840F023812388DDF809100822F3
:10D10C00EA54238801339BB21B222380EA542388E0
:10D11C0001339BB2EA182380E950BDF80D3093809F
:10D12C0023889DF8082006339BB212F0FE0218BF2C
:10D13C0001222380EA54238801332380B378FBB186
:10D14C0023880433BB42CFD802A8FFF747FF00283F
:10D15C0040F0F58023880322EA54238801339BB2E4
:10D16C0019222380EA542388BDF8082001339BB28E
:10D17C00E9182380EA54120A4A7023880233238068
:10D18C00F2789AB12388D91CB942ADD80221E9545E
:10D19C00238801339BB201212380E95423880B445B
:10D1AC009BB22380EA5423880B4423807268AAB173
:10D1BC002388D91CB94297D8022192F90020E9544E
:10D1CC00238801339BB20A212380E954238801333D
:10D1DC009BB22380EA542388013323803389002BAC
:10D1EC0040F0A180338A5BB1CDE900472B46072282
:10D1FC00032106F11000FFF74DFF002840F09F803F
:10D20C00338B5BB1CDE900472B461522142106F177
:10D21C001800FFF73FFF002840F09180326A002A87
:10D22C0040F09080D6F82480B8F1000F30D0B8F8D8
:10D23C0004302188981C8A1C0244BA423FF654AF31
:10D24C00FE283FF651AF03336B54238801339BB256
:10D25C00FF222380EA54238801339BB22380B8F841
:10D26C000020EA54E918120A4A702088023080B271
:10D27C002080B8F804205AB1D8F8081000296BD0D7
:10D28C00284401F025FE2388B8F804201344238099
:10D29C0096F82C30002B40F09880307800284ED037
:10D2AC003388012B58D0228802F1020CBC453FF682
:10D2BC001BAF012805D17378023313449F42FFF44E
:10D2CC0013AF023FBF1ABFB202A905EB0C00ADF8B9
:10D2DC000870FFF785FE90BB3178BDF80830022945
:10D2EC0000F0B98072789A4202D39F4280F0B180EC
:10D2FC00012940F0B280974293B2C0F0AE80ADF8F5
:10D30C0008300821BDF80830FE2B3FF6EDAE228820
:10D31C000133AB542288013292B22280A954228864
:10D32C00134423800BE0CDE900472B460622022153
:10D33C0006F10800FFF7AEFE00283FF453AF05B02E
:10D34C00BDE8F08FB4F800C00CF10603BB423FF609
:10D35C00CBAE1188052901D80720F0E76FF4486E91
:10D36C0001EB0E039BB24FF27D3E7345F4D953880B
:10D37C00052BF1D96FF44860181880B27045EBD9C1
:10D38C004FF6FF70814201D09942E5D8052305F88C
:10D39C000C30238801339BB212212380E95423885B
:10D3AC0001339BB223801188E954E818090A4170B3
:10D3BC00238802339BB223805288EA54E918120A5C
:10D3CC004A702388023323802CE7B36A002BC3D026
:10D3DC004FF000084FF00C0A4FF0160BB16A5FFAD1
:10D3EC0088F20AFB02F201EB0209B9F80430981C2E
:10D3FC00FE283FF679AE208803332B542388013363
:10D40C009BB2238005F803B0238801339BB22380A1
:10D41C008A5AEA54E918120A4A702088023080B2FB
:10D42C002080B9F804205AB1D9F80810002993D0FB
:10D43C00284401F04DFD2388B9F8042013442380BF
:10D44C0096F82C2008F101085FFA88F39A42C5D8A7
:10D45C0023E7092156E79F42FBD2ADF8087050E74D
:10D46C0030B5C8B1F2B10024651C8D4206DA1588BE
:10D47C00A54212D805196D789D420ED1A14211D941
:10D48C00005D48B1013880B230B10234A3B210FA59
:10D49C0084F4A14206DB138030BD055D01352C44BC
:10D4AC00A4B2E1E70020F7E713B513460022ADF86C
:10D4BC0006200DF106020446FFF7D2FF10B1BDF8AD
:10D4CC000600204402B010BD72DF704773DF704756
:10D4DC0074DF704738B5012204460D46B0F8D810F9
:10D4EC00D0F8D400FFF7E0FF00B1057004F13C0266
:10D4FC0004F1D40104F15400BDE83840FFF7E4BF57
:10D50C0080F830107047F8B504460F46002966D0F5
:10D51C00002864D091F87A301BB191F89830002B28
:10D52C005FD1D7F8A030042B5BD0D7F89C30042BFC
:10D53C0057D04FF0000C84F802C007F178060FCEDC
:10D54C00251D0FC50FCE0FC596E8070085E807000F
:10D55C0084F830C0D7F8A4306363D7F8A830A3633D
:10D56C0004F1D4024FF6FF73C4F8EAC0A4F8E83013
:10D57C00C4F8E420C4F8EDC022780AB984F8543019
:10D58C00224604F155011F25C4F8D410384622F860
:10D59C00D85FFFF79BFD08BB224604F19301C4F84A
:10D5AC00DC1007F13C0022F8E05FFFF78FFDA8B913
:10D5BC00A369A4F848304FF480730125A4F85030C7
:10D5CC0063692064014684F83C50636404F13C02B6
:10D5DC0004F15400FFF778FF00B92570F8BD0E2058
:10D5EC00FCE70720FAE7F8B5077804460D46002F4C
:10D5FC0000F0F6800023C0F8EA30C0F8ED30C388A4
:10D60C00817000F1EA060BB1012903D0E37943B133
:10D61C00022D06D1636BABB1012284F8F1200820F6
:10D62C00984704F1EB0304F1F10113F8012B12B943
:10D63C009942FAD117466B1E032B4ED8DFE803F044
:10D64C00050B0F1284F8F130EBE7A3791BB194F8BA
:10D65C00243003B95FB9E3790BB1002F3FD1237AA2
:10D66C00002B3ED1637A002B0CBF00250425636B85
:10D67C00A570002B37D0033D012D34D8627992B3BD
:10D68C0094F8F2207ABB84F8F420012284F8F32079
:10D69C000720984704F13C0518220021284601F088
:10D6AC0040FCE26A531E0121022B94F8243084F8CA
:10D6BC003C1028BF0A4684F8512033B1A36A5A1E85
:10D6CC00022A28BF0B4684F85230A378042B1CD8AE
:10D6DC00DFE803F06D0D233353000025C7E7022567
:10D6EC00C5E70325C3E7002384F8F330D2E7012311
:10D6FC0084F831300023C4E91063C4F8E430022309
:10D70C0084F83C308023A4F84830A378002B52D105
:10D71C00636B002B60D100205DE0022384F8313074
:10D72C00032384F83C302369A4F848300023C4F860
:10D73C00E430E36826646364E7E763696364A369C0
:10D74C00A4F848306379B3B194F8F2309BB994F8EB
:10D75C00F43083B1022384F8503004212046FFF7C3
:10D76C00B9FE0028D1D1052384F8313004F1D4035B
:10D77C00C4F8E430C9E70323F6E7E3696364236A7A
:10D78C00A4F84830637983B194F8F2306BB994F80B
:10D79C00F43053B1022384F8503004212046FFF7B3
:10D7AC0099FE0028B1D10623DEE70423DCE7002331
:10D7BC0084F83130A9E7D4F8E4102A4604F1540077
:10D7CC00FFF782FE38B994F8301094F85400FFF744
:10D7DC007DFE00289CD0F8BD94F8310098479AE75C
:10D7EC000820F8E70388112B10B50C460AD0262B1D
:10D7FC001FD0102B05D1C37B012B02D18388A1F83C
:10D80C00E83010BD0022838881F8F220B1F8E820BE
:10D81C009A42F6D10B79002BF3D101212046FFF768
:10D82C00E2FE0028EDD0A36B002BEAD0BDE810403F
:10D83C001847037A013B012BE3D889780523013182
:10D84C00B1FBF3F303EB8303C91AC9B2E6E738B5AE
:10D85C00044690F85400FFF73BFE012384F8F230A5
:10D86C00002384F8F43084F8503006212046FFF76A
:10D87C0031FE054638B9A1782046FFF7B4FE10B149
:10D88C00A36B03B19847284638BD75DF704776DF28
:10D89C0070477ADF70477BDF70470000034B1A88B4
:10D8AC0082420CBF18460020704700BF1C34002079
:10D8BC00024B9B6903B11847704700BF003400202E
:10D8CC0073B585B22846FFF7E9FF044638B3174E07
:10D8DC00027A337B9A420CD200F10A012846FFF7F8
:10D8EC00D4FFF0B111281AD002B0BDE87040FFF798
:10D8FC00DFBF00230372337C43B13B212846FFF783
:10D90C00C6FF30F0080301D0FFF7D2FF736933B1C3
:10D91C0000228DF80420ADF8065001A8984702B0FB
:10D92C0070BD237A01332372F9E700BF0034002065
:10D93C0013B50B46497A02460E4871B9D0E901106D
:10D94C001C7A002C18BF01465868FCF7EFFA78B126
:10D95C0002B0BDE81040FFF7ABBF0021197243695C
:10D96C0033B101218DF80410ADF8062001A89847B9
:10D97C0002B010BD003400204B8802889A4212D8A5
:10D98C0042889A420FD380888B8840F2F3118842E8
:10D99C0094BF021A421A9A4205D80844984234BFDE
:10D9AC000020012070470020704700000388122BD4
:10D9BC0070B5014659D004D8102B1ED0112B44D071
:10D9CC0070BD502BFCD12F4BC288DB899A42F7D10A
:10D9DC00038A022BF4D186883046FFF75FFF054699
:10D9EC000028EDD001F1120000F071F938BB686825
:10D9FC00FCF7CAFA0028E3D009E0C37B012BDFD186
:10DA0C004FF6FF70FFF74AFF054620B90420BDE82A
:10DA1C007040FFF74DBF1C4A8E88068000230372AE
:10DA2C001368C0F80A305368C0F80E3010310A3051
:10DA3C00FFF7A2FF134B6872DB89002BC0D129467C
:10DA4C003046BDE87040FFF773BF8088FFF726FFB4
:10DA5C0004460028B4D04068FCF796FA08B1FFF7EA
:10DA6C0027FF4FF6FF732380AAE786883046FFF71F
:10DA7C0015FF05460028A3D008310A30FFF77CFFBC
:10DA8C006872DCE70034002030340020F8B506461C
:10DA9C0048B305460FCD154F3C460FC495E807001B
:10DAAC0084E807003068124C3C60B0B1FFF7F1FE1F
:10DABC00C0B9326813682360536863600D480E4A1E
:10DACC004FF6FF7303800D4B40F8043F0021FCF729
:10DADC001BFA002818BF032004E02046FFF7DBFEEA
:10DAEC000028EBD0F8BD0E20FCE700BF003400206E
:10DAFC00303400201C340020CDD8010038340020F4
:10DB0C000AB1FCF759BEFCF760BE73B50191019CDC
:10DB1C0006466CB100252C46294601A8FCF75FFE91
:10DB2C0018B106EB440301349D800135142DF3D15B
:10DB3C003046346002B070BD2DE9F0430388848810
:10DB4C00103B8DB00A2B1ED8DFE803F006361D1DE6
:10DB5C001D1D1D1D1D5B3D002E4FBB68DB4300933F
:10DB6C0079686846FCF767FE009901A8FFF7CDFFBE
:10DB7C000DF108080026019B9E4207D3132C12D9E5
:10DB8C000420FCF77BF80DB0BDE8F08338F8029B5D
:10DB9C0000250135494607EB8500FCF716FE1E2DC6
:10DBAC00F7D10136E7E721461B48FCF705FE1B4879
:10DBBC002146FCF701FEE6E7174821460DB0BDE80B
:10DBCC00F043FCF702BE027A15483F2A4FEA1215C1
:10DBDC00214694BF00220122FFF792FF022D94BF31
:10DBEC00002201220F482146FFF78AFF012D0E4823
:10DBFC0094BF0022012221460DB0BDE8F043FFF78F
:10DC0C007FBF037A002BBED1427A0548C2F3C00213
:10DC1C002146F1E758340020603400205C340020A9
:10DC2C00703400206C340020683400201328014626
:10DC3C0002D80248FCF7D3BD002070475C340020AA
:10DC4C0010B50446FFF7F2FF002814BF204614203D
:10DC5C0010BD70B50546164608460AB90E2070BDB3
:10DC6C0000231360002DF9D02B68002BF6D0EB8825
:10DC7C0013F003040ED1FFF7E3FFC0B214280BD04E
:10DC8C002B7983420AD9EA882B6800FB023030607A
:10DC9C002046E4E70720E2E70520E0E70420DEE782
:10DCAC00AADF7047002301380B70042806D8DFE880
:10DCBC0000F00306080A0C0011230B707047212397
:10DCCC00FBE73123F9E71223F7E72223F5E7008876
:10DCDC0000F0010070470088C0F340007047F0B5B9
:10DCEC008B7891B00C46012B38BF012300278DF89F
:10DCFC000E3005460B88607CADF80C306946ADF8EB
:10DD0C0000708DF80270FFF7CDFFA07C0DF10101C2
:10DD1C00FFF7C8FF1646237BE27B217D43EAC20353
:10DD2C00227C43EA02139DF80220B94222F0190228
:10DD3C0003F0190314BF02210121134361F34203C1
:10DD4C001C22394609A88DF8023001F0EAF8637BF1
:10DD5C0013F0300F14D00DF10901E07CADF8087010
:10DD6C008DF80A70FFF79EFF11238DF808309DF88F
:10DD7C000A30012102AA61F342038DF80A300E9297
:10DD8C00637B8DF82430A37B8DF825300023CDE9FF
:10DD9C000633089303AB0493A388ADF81C30A36837
:10DDAC00CDF814D01BB1E288ADF818200893A36904
:10DDBC0073B301A90022ADF804208A701A88ADF85B
:10DDCC002C205A88ADF82E205A680D91187B0A9297
:10DDDC00FFF768FFA3690DF10501587BFFF762FFA0
:10DDEC00A3699A7A197A41EAC201DA7A9B7B41EAF1
:10DDFC0002119DF80620002B01F0190122F01902E6
:10DE0C0014BF02230123114363F342018DF8061062
:10DE1C00E36903B10C93334604AA09A92846FFF71A
:10DE2C003FFF11B0F0BDA5DF7047B5DF704758B1AB
:10DE3C004FF0F7130360FB230371F723C380172301
:10DE4C00C1608360002070470E20704730B1A1F193
:10DE5C001703E02B04D80180002070470E20704778
:10DE6C000720704713B5034680880C4690B91A8872
:10DE7C003A2A68D010D8102A3DD0112A5ED0A37A45
:10DE8C0043B1E1880020FFF7CEFF002876D14FF494
:10DE9C008073638102B010BD552AF0D1DB88C9882C
:10DEAC00A072172B38BF17238B4228BF0B46238138
:10DEBC00FFF7BBFF60B1FDF7BFF8394B394902469C
:10DECC0039481B1ADB081B0443F00100FBF76EFDFD
:10DEDC00E27A002AD3D1E368002BD0D040F6772128
:10DEEC00ADF802202289ADF80010ADF80420694687
:10DEFC0020469847C3E7DB7B012B04BF0B88CB8004
:10DF0C00C98823898B42BAD20020FFF78CFF10B945
:10DF1C000123E372B3E7112802D10123A372AEE708
:10DF2C00FDF78AF81E4B214902461F481B1ADB08D5
:10DF3C001B0443F00100FBF739FDA0E7F723CB806E
:10DF4C0017238B609BE75B89CA88934228BF1346D3
:10DF5C00172BCA6838BF17230B8162B1C97A51B12C
:10DF6C0040F67721ADF80010ADF80200ADF80430A2
:10DF7C006946204690470023638180E7112889D0A9
:10DF8C00FDF75AF8064B0949024607481B1ADB08ED
:10DF9C001B0443F0010002B0BDE81040FBF706BDC6
:10DFAC0010F701005B000200C0F601002A0002001D
:10DFBC00B0DF704766DF704710B50021044640881B
:10DFCC00FFF7F8FF034608B9237210BD112801D1E1
:10DFDC000123F9E76368BDE81040184760B159B1F7
:10DFEC000378DE2B0AD00B684360DE2303704FF6F8
:10DFFC00FF734380002070470E2070470820704745
:10E00C0028B10378DE2B04D14180002070470E200C
:10E01C00704708207047F0B5054685B00C460029BE
:10E02C0042D0002840D00B78DE2B3DD182884B8823
:10E03C009A4204D10B7A13B10846FFF7BDFF2B8827
:10E04C00112B33D0512B0FD0012B2DD12B7A012B2F
:10E05C002AD1A9886288914226D12046237205B024
:10E06C00BDE8F040FFF7A8BFAE886388B3421BD170
:10E07C00AF79022F18D1AD7B2B1F022B14D80021A6
:10E08C001022684600F04DFF052D18BF4FF4C073E9
:10E09C006946304618BFADF804308DF80070FFF7B4
:10E0AC0087FF08B16368984705B0F0BD6388AA88FC
:10E0BC009A4204BF4FF6FF736380F5E7A8DF704701
:10E0CC00ADDF7047AEDF704762DF704738B50F4D7C
:10E0DC000F4C00232B702378AD2B01D1FEF7BEFC27
:10E0EC002378DF2B05D10123A17860782B70FEF704
:10E0FC002DFD2078F72803D1BDE83840FEF7F6BC9B
:10E10C006178BDE83840FEF75BBC00BFD934002015
:10E11C00D4340020F0B504468BB00D4600295FD0F6
:10E12C0000285DD00388502B35D0572B7BD0102B7B
:10E13C0056D181886869002601AA0196FFF789FDEE
:10E14C0002232989A088ADF80A6002AACDF80CD068
:10E15C00ADF80830FFF7B4FF002841D1AB69002BB4
:10E16C003ED00398FFF7B3FD002839D0019E0EB1C5
:10E17C00012333701822002104A800F0D2FE0223E0
:10E18C008DF81030A388ADF81830AB69059507965B
:10E19C0004A8984724E08188686902AAFFF759FD12
:10E1AC001822002104A800F0BCFEA3882989ADF830
:10E1BC001830E388029A05959942079217D1268A5E
:10E1CC00022E14D162B104F11200FFF780FD029B04
:10E1DC0040B101221A708DF81060AB69002BD7D1B9
:10E1EC000BB0F0BD187003238DF81030F5E7AA8939
:10E1FC009A42F5D1AB69002BF2D004F112020892CD
:10E20C00228AADF8242004A89847164BA27C1A70D9
:10E21C00E27C5A70227D9A70627DDA70A27D1A714E
:10E22C00FFF754FFDCE78188686902AAFFF711FD4C
:10E23C0001460028D4D1029F3B78002BD0D0AE6988
:10E24C00002ECDD0182204A800F06BFE01238DF80F
:10E25C001030A3880595ADF81830079704A8B0477F
:10E26C00BEE700BFD4340020F0B53B4B8FB002ADFD
:10E27C0004460A4603F1100C2F46186859682E46BE
:10E28C0003C6083363453546F7D1002C61D0002A0C
:10E29C005FD01368A36121463846FFF715FF0028AD
:10E2AC0055D12246012512F8023B8DF8063001A902
:10E2BC002846ADF80450FFF701FF002847D101466E
:10E2CC00202206A800F02DFE224640F6ED73ADF894
:10E2DC00183012F80C3B8DF81A30BDF824301F4F53
:10E2EC006088079723F4F75323F01F0343F4F0538C
:10E2FC002B4340F2011606A9ADF824308DF82950B5
:10E30C00ADF82A60FFF7EBFC08BB0146202206A8FB
:10E31C0000F007FE22464FF6ED63ADF8183012F808
:10E32C00043B8DF81A30BDF824306088079723F42D
:10E33C00875323F01F0343F480532B4306A9ADF8F6
:10E34C0024308DF82950ADF82A60FFF7C8FC0FB0C7
:10E35C00F0BD0E20FBE700BFD5010200F400010068
:10E36C00F0B50F4687B016461C46054610B34069FB
:10E37C0001AA1946FFF76DFCD0B94FF6FF739C420A
:10E38C001AD0019BC3B11B78C3B13388F42B17D8B7
:10E39C00AB88CDF80B008DF80F00ADF8083002A952
:10E3AC0001232046CDE904678DF80A30FFF78AFE79
:10E3BC0007B0F0BD0E20FBE70520F9E70820F7E7D2
:10E3CC000720F5E7F0B50F4687B016461C46054604
:10E3DC0010B3406901AA1946FFF73BFCD0B94FF6C0
:10E3EC00FF739C421AD0019BC3B11B78C3B1338815
:10E3FC00F42B17D8AB89CDF80B008DF80F00ADF8C6
:10E40C00083002A901232046CDE904678DF80A30B3
:10E41C00FFF758FE07B0F0BD0E20FBE70520F9E72B
:10E42C000820F7E70720F5E710DF704713B504461F
:10E43C0009496846FCF7A5FD019808B902B010BD62
:10E44C00D0E900312046984718B16846FCF7A3FD87
:10E45C00F2E71120F2E700BFF401020013B5044605
:10E46C0007496846FCF78DFD019B0BB902B010BD46
:10E47C002046D3E9002190476846FCF78CFDF3E772
:10E48C000C0202000B4991F816335A09EC23134184
:10E49C00DB0706D5084B9A683AB94FF480030B603A
:10E4AC00704742F20200FBF7E9BB1A6842F48002A3
:10E4BC001A60704700E100E0302A0020F7B5194FD0
:10E4CC003C7864BB184E012520463570FFF7AEFF33
:10E4DC00112821D02046FFF7C1FF144B8DF80340C3
:10E4EC00186801900DF10300FBF768FF104901A8B3
:10E4FC00FFF79AFF0446B0FA80F0400938709DF897
:10E50C000300FBF77FFF3CB90A4B34701C70FFF71C
:10E51C00B9FF2846FFF7A2FF204603B0F0BD082440
:10E52C00FAE700BFDB340020DA340020ED010200F2
:10E53C00A59C0100DC340020014B1878704700BF0B
:10E54C00DB34002007B508496846FCF71AFD019B2F
:10E55C0013B903B05DF804FBD3E90020904768467B
:10E56C00FCF719FDF3E700BF00020200FFF7EABF5A
:10E57C0060DF704769DF704761DF704730B5134D5E
:10E58C00ADF5017D4FF4FA740DF1020103A8ADF85D
:10E59C000240FFF7F1FF70B9294601A8FCF7F1FC26
:10E5AC00029B002BF0D003A8D3E90021904701A8CF
:10E5BC00FCF7F1FCF4E7052805D00DF5017DBDE86D
:10E5CC003040FBF75BBB0DF5017D30BD94040200C0
:10E5DC00024B1B780BB1FFF7D1BF7047DD34002025
:10E5EC0030B5054685B00C46002900F0A880002304
:10E5FC00CDE90133534A039301230A608DF80400DB
:10E60C008DF8063001A906232020ADF80830FFF75D
:10E61C00B1FF60B1FCF710FD4B4B4C4902464C4826
:10E62C001B1ADB081B0443F00100FBF7BFF90023A6
:10E63C00CDE9013303932268012301A940208DF811
:10E64C000530FFF797FF60B1FCF7F6FC3E4B4149F4
:10E65C0002463F481B1ADB081B0443F00100FBF782
:10E66C00A5F90023CDE90133039322688DF80450FA
:10E67C00F72301A92320ADF80630FFF77BFF60B12B
:10E68C00FCF7DAFC304B3449024631481B1ADB08E4
:10E69C001B0443F00100FBF789F90023CDE901339A
:10E6AC0003932268022301A901208DF80430FFF79F
:10E6BC0061FF60B1FCF7C0FC234B2849024624489B
:10E6CC001B1ADB081B0443F00100FBF76FF9002356
:10E6DC00CDE9023322684FF4B06301A9A120019364
:10E6EC00FFF748FF60B1FCF7A7FC174B1C4902462B
:10E6FC0017481B1ADB081B0443F00100FBF756F903
:10E70C00012300252268039501A9A020CDE901551C
:10E71C008DF80430FFF72EFF034668B1FCF78CFC34
:10E72C00094B104902460A481B1ADB081B0443F02C
:10E73C000100FBF73BF92B46184605B030BD0E2304
:10E74C00FAE700BFD822002020F7010018020200CF
:10E75C00C0F601005E020200AA020200F1020200F1
:10E76C003D0302008E030200F8B506460768FFF76A
:10E77C00FFFE3368BB4205461DD91948194C1A498E
:10E78C00241AE408240444F002042046FBF70AF996
:10E79C00336816493A462046FBF711F94FF080537F
:10E7AC003268D3F80C3112499B0203F100539A1AC8
:10E7BC002046FBF7FBF825B90E4B01221A702846B0
:10E7CC00F8BD2846FCF738FC064B0B4902460448BA
:10E7DC001B1ADB081B0443F00100FBF7E7F8EEE71C
:10E7EC00C0F6010020F70100E10302001004020052
:10E7FC0041040200DD3400206B0402004BDF704743
:10E80C001FB50E4C01A8FFF7F9FF70B9214602A8FD
:10E81C00FCF7B7FB039B002BF4D00198D3E9002144
:10E82C00904702A8FCF7B7FBF4E7052804D004B026
:10E83C00BDE81040FBF722BA04B010BDAC040200D6
:10E84C00A8DF7047ADDF7047AEDF7047B0DF7047B1
:10E85C0062DF70473CDF70473DDF70477047000058
:10E86C002DE9F041044688B038B10388512B27D0EC
:10E87C0006D8102B18D0112B1AD008B0BDE8F08197
:10E88C00532BFAD1304DC288EB889A42F5D12B7EAE
:10E89C00002BF2D000F098F90028EED06B69022022
:10E8AC0008B0BDE8F04118478288274B9A80E4E70E
:10E8BC00254B81889A889142DFD14FF6FF72F5E79C
:10E8CC00214DB0F80480AB889845D6D18679022EBC
:10E8DC00D3D10289EB889A42CFD1837B043B022BA4
:10E8EC00CBD9102200210DEB020000F01AFB01AF76
:10E8FC0069898DF8106002AA404602960397FFF7CB
:10E90C00A1FF0646D0B93846FFF7E5F9B0B19DF83E
:10E91C001630ADF8146043F001038DF81630A8885A
:10E92C0004A9FFF793FF1128F9D0BDF81430002B80
:10E93C00A3D104F1080000F0E3F89EE740F2FD13C8
:10E94C00ADF81430EBE700BFE03400207FB50023B6
:10E95C00CDF80B308DF80F300323ADF802302023A7
:10E96C008DF804300D4B8DF80500DA88ADF80820D1
:10E97C0002228DF80A206A448DF8061004929888B9
:10E98C0001AA02A90592FFF75FFF20B9BDF802307A
:10E99C00032B18BF0C2007B05DF804FBE0340020FB
:10E9AC0010B54FF0FF310020FFF756FF044658B961
:10E9BC00B121FFF74FFF044630B9044B01205B69CE
:10E9CC0098470220FCF774FA204610BDE034002072
:10E9DC00F0B51B4B87B002AC024603F1100725467D
:10E9EC0018685968264603C60833BB423446F7D12B
:10E9FC0022B3144B12685A614FF6FF7199800021B3
:10EA0C0019760AB9104A5A610E4800F04FF898B9B5
:10EA1C0001204FF659630D4A8DF8060001A9ADF897
:10EA2C000430FFF70DFF38B906492846FFF710FFF1
:10EA3C0010B9044800F044F807B0F0BD0E20FBE715
:10EA4C00B8040200E034002069E80100E234002040
:10EA5C0014490B6810B51BB34B680BB308319847BE
:10EA6C0008281DD0104C236858B958760121022073
:10EA7C00FFF76CFFA0B123685B690320BDE8104071
:10EA8C00184700225A7606210220FFF75FFF18B1C3
:10EA9C00236803205B699847236802205B69EDE7D4
:10EAAC0010BD00BF1C3500201835002018B1034BD9
:10EABC001860002070470E20704700BF18350020EA
:10EACC0010B588B0044620220021684600F029FACF
